:020000040800F2
:100000000028002059150008E9140008EF14000822
:10001000F5140008FB14000801150008000000009A
:1000200000000000000000000000000007150008AC
:1000300013150008000000001F1500082B1500080C
:10004000A1150008A1150008A1150008A1150008B8
:10005000A1150008A1150008A1150008A1150008A8
:10006000A1150008A1150008A1150008A115000898
:10007000A1150008A1150008A1150008A115000888
:10008000A1150008A1150008A1150008A115000878
:10009000A1150008A1150008A1150008A115000868
:1000A000A1150008A1150008A1150008A115000858
:1000B00039150008A115000800000000A11500086E
:1000C000A11500080000000000000000A1150008B4
:1000D00000000000A1150008A115000800000000A4
:1000E000A1150008A1150008A115000800000000D6
:1000F0000000000000000000000000000000000000
:0C01000000000000000000005FF808F1A3
:10010C0010B5054C237833B9044B13B10448AFF345
:10011C0000800123237010BD74000020000000003B
:10012C00F82B000808B5034B1BB103490348AFF388
:10013C00008008BD0000000078000020F82B0008AB
:10014C0080B400AF034B01221A6000BFBD4680BCD7
:10015C00704700BF9000002080B500AF1F4B1B689C
:10016C001F4A13601F4B1B681C4A13604FF400514D
:10017C001D4801F0FBFC03461A461A4B1A60174B3C
:10018C001A68184B1B689A4225D1144B1A68144BE9
:10019C001B689A421FD1124B1A68144B1B689A4267
:1001AC000DD00F4B1B68114A1360104B1B68002BB2
:1001BC0011D10F4B64221A60FFF7C2FF0BE00C4BFE
:1001CC001B68013B0A4A1360094B1B68002B02D1C8
:1001DC00064B01221A6000BF80BD00BF0400002046
:1001EC000800002000000020001001400C0000203E
:1001FC003000002080B500AF1F4B1B681F4A1360F6
:10020C001F4B1B681C4A13604FF480411D4801F0C2
:10021C00ADFC03461A461A4B1A60174B1A68184B5A
:10022C001B689A4226D1144B1A68144B1B689A42CD
:10023C0020D1124B1A68144B1B689A420ED00F4BEC
:10024C001B68114A1360104B1B68002B12D10F4B0B
:10025C0064221A600E4B01221A600BE00B4B1B68D8
:10026C00013B0A4A1360094B1B68002B02D1064B59
:10027C0001221A6000BF80BD14000020180000206D
:10028C0010000020001001401C0000203400002051
:10029C009400002080B500AF1F4B1B681F4A1360F1
:1002AC001F4B1B681C4A13604FF400411D4801F0A2
:1002BC005DFC03461A461A4B1A60174B1A68184B0A
:1002CC001B689A4226D1144B1A68144B1B689A422D
:1002DC0020D1124B1A68144B1B689A420ED00F4B4C
:1002EC001B68114A1360104B1B68002B12D10F4B6B
:1002FC0064221A600E4B01221A600BE00B4B1B6838
:10030C00013B0A4A1360094B1B68002B02D1064BB8
:10031C0001221A6000BF80BD2400002028000020AC
:10032C0020000020001001402C000020380000208C
:10033C009800002080B500AF4D4B1B68013B032B90
:10034C0000F28A8001A252F823F000BF6903000872
:10035C009D030008D10300080504000800F076FD99
:10036C00444B1B68012B79D1414B02221A60414B43
:10037C0000221A60002201213F4801F00EFC0022ED
:10038C0010213D4801F009FC322000F0ADFF65E082
:10039C0000F052FE374B1B68012B61D1344B03220A
:1003AC001A60344B00221A6000220421324801F0FA
:1003BC00F4FB00224021304801F0EFFB322000F02A
:1003CC00A7FF4DE000F0A4FE2A4B1B68012B49D17E
:1003DC00274B04221A60274B00221A6000220221AC
:1003EC00254801F0DAFB00222021234801F0D5FB3F
:1003FC00322000F0A1FF35E000F0F6FE1D4B1B682B
:10040C00012B31D11A4B01221A601A4B00221A60AF
:10041C0000220221184801F0C0FB002220211648BE
:10042C0001F0BBFB00220421134801F0B6FB0022B3
:10043C004021114801F0B1FB002201210E4801F0CE
:10044C00ACFB002210210C4801F0A7FB00F016F8C1
:10045C00322000F035FF07E000BF06E000BF04E0EB
:10046C0000BF02E000BF00E000BF00BF80BD00BFC6
:10047C006000002090000020000C014080B400AF10
:10048C000D4B1B680D4A13600B4B1B680B4A5360DA
:10049C000B4B1B680B4A1360094B1B68094A5360D2
:1004AC00094B1B68094A1360074B1B68074A5360CA
:1004BC0000BFBD4680BC70473C00002048000020B7
:1004CC004400002058000020400000205000002074
:1004DC0080B500AF01F060F800F018F800F09EF85D
:1004EC0000F050F8084801F0C1FF642000F0E8FE6D
:1004FC00322000F0F9FE322000F00AFF322000F02A
:10050C001BFFFFF717FFFCE7D400002080B590B06D
:10051C0000AF07F1180328220021184602F05EFBF9
:10052C003B1D00221A605A609A60DA601A6102233D
:10053C00BB610123BB621023FB6200237B6307F1C9
:10054C001803184601F05AFB0346002B01D000F0AB
:10055C00EDF80F237B600023BB600023FB600023BE
:10056C003B6100237B613B1D0021184601F0C6FD59
:10057C000346002B01D000F0D9F800BF4037BD4630
:10058C0080BD000080B586B000AF07F108030022E3
:10059C001A605A609A60DA603B4600221A605A6010
:1005AC001D4B4FF080421A601B4B41F63F725A6054
:1005BC00194B00229A60184B0922DA60164B002264
:1005CC001A61154B00229A61134801F0FFFE034695
:1005DC00002B01D000F0AAF84FF48053BB6007F158
:1005EC00080319460C4802F095F80346002B01D07D
:1005FC0000F09CF800233B6000237B603B461946CF
:10060C00054802F05DFA0346002B01D000F08EF88D
:10061C0000BF1837BD4680BDD400002080B588B01F
:10062C0000AF07F1100300221A605A609A60DA607A
:10063C002F4B9B692E4A43F0100393612C4B9B6903
:10064C0003F01003FB60FB68294B9B69284A43F0BD
:10065C0004039361264B9B6903F00403BB60BB68E6
:10066C00234B9B69224A43F008039361204B9B69FF
:10067C0003F008037B607B68002247F6FE711D487F
:10068C0001F08BFA00224FF2F7311B4801F085FA8A
:10069C004FF460433B6100237B610123BB6107F195
:1006AC0010031946154801F0E7F847F6FE733B6155
:1006BC0001237B610023BB610223FB6107F1100363
:1006CC0019460C4801F0D8F84FF2F7333B6101237F
:1006DC007B610023BB610223FB6107F11003194608
:1006EC00054801F0C9F800BF2037BD4680BD00BFEA
:1006FC000010024000080140000C014000100140B5
:10070C0080B582B000AF786000F02AFE00F042FEA7
:10071C0000F05AFE00F072FEFFF71EFDFFF76AFDB7
:10072C00FFF7B8FD00BF0837BD4680BD80B400AFF1
:10073C0072B600BFFEE7000080B582B000AF7860F3
:10074C000B46FB707B68002B55D1FB78782B23D1A3
:10075C0000220221C24801F020FA00220421C048E4
:10076C0001F01BFA00220821BD4801F016FA002204
:10077C001021BB4801F011FA00222021B84801F0E9
:10078C000CFA00224021B64801F007FA0122802120
:10079C00B34801F002FA52E3FB78792B40F04F8317
:1007AC0000224FF48071AE4801F0F7F900224FF4AB
:1007BC000071AB4801F0F1F900224FF48061A848B8
:1007CC0001F0EBF900224FF40061A54801F0E5F9C6
:1007DC0000224FF48051A24801F0DFF900224FF4BF
:1007EC0000519F4801F0D9F901224FF480419C48F7
:1007FC0001F0D3F923E37B68012B55D1FB78782BDF
:10080C0023D101220221964801F0C7F900220421CC
:10081C00934801F0C2F900220821914801F0BDF97A
:10082C00012210218E4801F0B8F9012220218C48B8
:10083C0001F0B3F901224021894801F0AEF90122FF
:10084C008021874801F0A9F9F9E2FB78792B40F077
:10085C00F68201224FF48071814801F09EF900224A
:10086C004FF400717E4801F098F900224FF480613A
:10087C007B4801F092F901224FF40061784801F0B5
:10088C008CF901224FF48051754801F086F9012250
:10089C004FF40051724801F080F901224FF480416D
:1008AC006F4801F07AF9CAE27B68022B55D1FB78CC
:1008BC00782B23D100220221694801F06EF9002225
:1008CC000421674801F069F901220821644801F00C
:1008DC0064F900221021624801F05FF90022202106
:1008EC005F4801F05AF9012240215D4801F055F9A9
:1008FC00002280215A4801F050F9A0E2FB78792BB4
:10090C0040F09D8200224FF48071554801F045F96A
:10091C0000224FF40071524801F03FF901224FF4CC
:10092C0080614F4801F039F900224FF400614C48C6
:10093C0001F033F900224FF48051494801F02DF9B0
:10094C0001224FF40051464801F027F900224FF4E0
:10095C008041434801F021F971E27B68032B55D1AA
:10096C00FB78782B23D1002202213D4801F015F9A8
:10097C00002204213A4801F010F9002208213848DD
:10098C0001F00BF900221021354801F006F9012283
:10099C002021334801F001F901224021304801F0B7
:1009AC00FCF8002280212E4801F0F7F847E2FB7892
:1009BC00792B40F0448200224FF48071284801F0DA
:1009CC00ECF800224FF40071254801F0E6F8002203
:1009DC004FF48061224801F0E0F800224FF40061EE
:1009EC001F4801F0DAF801224FF480511C4801F045
:1009FC00D4F801224FF40051194801F0CEF800222E
:100A0C004FF48041164801F0C8F818E27B68042BBB
:100A1C0057D1FB78782B25D101220221104801F007
:100A2C00BCF8002204210E4801F0B7F8002208217E
:100A3C000B4801F0B2F801221021094801F0ADF881
:100A4C0001222021064801F0A8F800224021044888
:100A5C0001F0A3F800228021014801F09EF8EEE19C
:100A6C0000080140FB78792B40F0E98101224FF41A
:100A7C008071C64801F091F800224FF40071C34810
:100A8C0001F08BF800224FF48061C04801F085F82A
:100A9C0001224FF40061BD4801F07FF801224FF4B0
:100AAC008051BA4801F079F800224FF40051B74850
:100ABC0001F073F800224FF48041B44801F06DF856
:100ACC00BDE17B68052B55D1FB78782B23D1002217
:100ADC000221AE4801F061F801220421AB4801F07B
:100AEC005CF800220821A94801F057F800221021D7
:100AFC00A64801F052F801222021A44801F04DF83B
:100B0C0000224021A14801F048F8002280219F4892
:100B1C0001F043F893E1FB78792B40F090810022AF
:100B2C004FF48071994801F038F801224FF40071AC
:100B3C00964801F032F800224FF48061934801F09E
:100B4C002CF800224FF40061904801F026F80122A5
:100B5C004FF480518D4801F020F800224FF40051E1
:100B6C008A4801F01AF800224FF48041874801F0BE
:100B7C0014F864E17B68062B55D1FB78782B23D1D4
:100B8C0000220221814801F008F8012204217F484B
:100B9C0001F003F8002208217C4800F0FEFF00223F
:100BAC0010217A4800F0F9FF00222021774800F04C
:100BBC00F4FF00224021754800F0EFFF0022802155
:100BCC00724800F0EAFF3AE1FB78792B40F037816C
:100BDC0000224FF480716D4800F0DFFF01224FF4CA
:100BEC0000716A4800F0D9FF00224FF48061674819
:100BFC0000F0D3FF00224FF40061644800F0CDFFF9
:100C0C0000224FF48051614800F0C7FF00224FF4DE
:100C1C0000515E4800F0C1FF00224FF480415B4858
:100C2C0000F0BBFF0BE17B68072B55D1FB78782BD1
:100C3C0023D100220221554800F0AFFF00220421ED
:100C4C00524800F0AAFF00220821504800F0A5FFEE
:100C5C00012210214D4800F0A0FF012220214B4819
:100C6C0000F09BFF01224021484800F096FF012232
:100C7C008021464800F091FFE1E0FB78792B40F0B1
:100C8C00DE8000224FF48071404800F086FF002285
:100C9C004FF400713D4800F080FF00224FF480615A
:100CAC003A4800F07AFF01224FF40061374800F017
:100CBC0074FF01224FF48051344800F06EFF012282
:100CCC004FF40051314800F068FF01224FF480418D
:100CDC002E4800F062FFB2E07B68082B58D1FB78FD
:100CEC00782B23D100220221284800F056FF002245
:100CFC000421264800F051FF00220821234800F06F
:100D0C004CFF00221021214800F047FF0022202137
:100D1C001E4800F042FF002240211C4800F03DFF1D
:100D2C0000228021194800F038FF88E0FB78792BED
:100D3C0040F0858000224FF48071144800F02DFFA4
:100D4C0000224FF40071114800F027FF00224FF4ED
:100D5C0080610E4800F021FF00224FF400610B4827
:100D6C0000F01BFF00224FF48051084800F015FFE3
:100D7C0000224FF40051054800F00FFF00224FF401
:100D8C008041024800F009FF59E000BF0008014013
:100D9C007B68092B53D1FB78782B23D100220221BD
:100DAC00294800F0FAFE00220421274800F0F5FE45
:100DBC0000220821244800F0F0FE002210212248D5
:100DCC0000F0EBFE012220211F4800F0E6FE00227D
:100DDC0040211D4800F0E1FE002280211A4800F05D
:100DEC00DCFE2CE0FB78792B29D100224FF48071AA
:100DFC00154800F0D2FE00224FF40071124800F0AA
:100E0C00CCFE00224FF480610F4800F0C6FE002299
:100E1C004FF400610C4800F0C0FE01224FF48051E9
:100E2C00094800F0BAFE00224FF40051064800F0C9
:100E3C00B4FE00224FF48041034800F0AEFE00BF28
:100E4C000837BD4680BD00BF0008014080B500AF2B
:100E5C00724B1B68012B40F0DE80714B1B78592BB9
:100E6C0037D06F4B5B78522B33D16E4B1B6878218C
:100E7C001846FFF761FC6B4B1A686B4B1B681344ED
:100E8C0079211846FFF758FC664B1B68013B654AF5
:100E9C001360644B1B68002B06D1644B1B68614AC2
:100EAC0013605F4B59221A7000224021604800F0F9
:100EBC0074FE002201215E4800F06FFE0122022127
:100ECC005B4800F06AFE01221021594800F065FED3
:100EDC009EE0534B1B78592B2DD1514B5B78522BE9
:100EEC0029D1514B1B6878211846FFF725FC4E4B36
:100EFC001B6879211846FFF71FFC4B4B1B68013B05
:100F0C00494A1360484B1B68002B09D1494B1B689D
:100F1C00454A1360424B52221A70414B47225A7079
:100F2C0000220221424800F038FE012204214048F0
:100F3C0000F033FE6CE03A4B1B78522B37D1384B18
:100F4C005B78472B33D1374B5A68374B5B6813446C
:100F5C0078211846FFF7F0FB324B5B687921184675
:100F6C00FFF7EAFB2F4B5B68013B2E4A53602D4B7E
:100F7C005B68002B06D12D4B1B682A4A5360284B0B
:100F8C0059225A7000220421294800F006FE012241
:100F9C000121274800F001FE00221021244800F016
:100FAC00FCFD01222021224800F0F7FD30E01C4B13
:100FBC001B78522B2CD11A4B5B78592B28D11A4BFE
:100FCC005B6878211846FFF7B7FB174B5B687921F4
:100FDC001846FFF7B1FB144B5B68013B124A536098
:100FEC00114B5B68002B09D1124B1B680E4A5360E6
:100FFC000B4B52225A700A4B47221A7000222021A6
:10100C000B4800F0CAFD01224021094800F0C5FD43
:10101C00642000F055F900BF80BD00BFB80000206F
:10102C006400002048000020500000203C000020FC
:10103C00000C01404000002080B500AF2D4B1B6818
:10104C00092B02DD2B4B00221A602A4B1B68002B4C
:10105C002CDB284B1B6878211846FFF76DFB792198
:10106C000220FFF769FB244B1B68012B1ED10121C9
:10107C00224800F0AAFD1021204800F0A6FD002215
:10108C0002211E4800F089FD002220211B4800F09F
:10109C0084FD00220421194800F07FFD002240212C
:1010AC00164800F07AFD322000F01EF9144B1B6834
:1010BC00012B09D1134B00221A600E4B1B68124AEC
:1010CC0013600F4B00221A60104B1B68012B0ED1C2
:1010DC000E4B00221A600B4B01221A60094B1B6845
:1010EC00002B04D0034B1B680133024A136000BF72
:1010FC0080BD00BF9C000020C0000020000C0140FF
:10110C0098000020A0000020440000209400002043
:10111C0080B500AF2D4B1B68092B02DD2B4B002239
:10112C001A602A4B1B68002B2CDB284B1B68782180
:10113C001846FFF701FB79210320FFF7FDFA244B3A
:10114C001B68012B1ED10421224800F03EFD4021DA
:10115C00204800F03AFD002202211E4800F01DFD3F
:10116C00002220211B4800F018FD00220121194803
:10117C0000F013FD00221021164800F00EFD322065
:10118C0000F0C6F8144B1B68012B09D1134B00223D
:10119C001A600E4B1B68124A13600F4B00221A6028
:1011AC00104B1B68012B0ED10E4B00221A600B4BFF
:1011BC0001221A60094B1B68002B04D0034B1B68DF
:1011CC000133024A136000BF80BD00BFA4000020A1
:1011DC00C8000020000C014098000020A80000204E
:1011EC00400000209400002080B500AF2D4B1B6800
:1011FC00092B02DD2B4B00221A602A4B1B68002B9B
:10120C002CDB284B1B6878211846FFF795FA7921BF
:10121C000420FFF791FA244B1B68012B1ED10221ED
:10122C00224800F0D2FC2021204800F0CEFC002205
:10123C0004211E4800F0B1FC002240211B4800F0A4
:10124C00ACFC00220121194800F0A7FC002210215F
:10125C00164800F0A2FC322000F06EF8144B1B680C
:10126C00012B09D1134B00221A600E4B1B68124A3A
:10127C0013600F4B00221A60104B1B68012B0ED110
:10128C000E4B00221A600B4B01221A60094B1B6893
:10129C00002B04D0034B1B680133024A136000BFC0
:1012AC0080BD00BFAC000020D0000020000C01402D
:1012BC0098000020B00000203C000020940000208A
:1012CC0080B483B000AF7860054A7B681360054B2F
:1012DC0000221A6000BF0C37BD4680BC704700BFAF
:1012EC00B4000020B800002080B483B000AF786058
:1012FC00054A7B681360054B00221A6000BF0C374F
:10130C00BD4680BC704700BFBC000020C000002060
:10131C0080B483B000AF7860054A7B681360054BDE
:10132C0000221A6000BF0C37BD4680BC704700BF5E
:10133C00C4000020C800002080B483B000AF7860E7
:10134C00054A7B681360054B00221A6000BF0C37FE
:10135C00BD4680BC704700BFCC000020D0000020F0
:10136C0080B400AF094B1B68002B0BDD074B1B68CF
:10137C00013B064A1360054B1B68002B02D1044B42
:10138C0001221A6000BFBD4680BC7047B40000202B
:10139C00B800002080B400AF094B1B68002B0BDD9C
:1013AC00074B1B68013B064A1360054B1B68002B5F
:1013BC0002D1044B01221A6000BFBD4680BC7047AD
:1013CC00BC000020C000002080B400AF094B1B689B
:1013DC00002B0BDD074B1B68013B064A1360054BCA
:1013EC001B68002B02D1044B01221A6000BFBD46C2
:1013FC0080BC7047C4000020C800002080B400AF3F
:10140C00094B1B68002B0BDD074B1B68013B064A85
:10141C001360054B1B68002B02D1044B01221A6090
:10142C0000BFBD4680BC7047CC000020D00000201F
:10143C0080B485B000AF154B9B69144A43F001038F
:10144C009361124B9B6903F00103BB60BB680F4BAC
:10145C00DB690E4A43F08053D3610C4BDB6903F01C
:10146C0080537B607B680A4B5B68FB60FB6823F0F6
:10147C00E063FB60FB6843F08063FB60044AFB683D
:10148C00536000BF1437BD4680BC7047001002404B
:10149C000000014080B584B000AF78607B681B68A9
:1014AC00B3F1804F13D10C4BDB690B4A43F00103B2
:1014BC00D361094BDB6903F00103FB60FB6800227D
:1014CC0000211C2000F0A1F91C2000F0BAF900BF8B
:1014DC001037BD4680BD00BF0010024080B400AF85
:1014EC00FEE780B400AFFEE780B400AFFEE780B447
:1014FC0000AFFEE780B400AFFEE780B400AF00BFE2
:10150C00BD4680BC704780B400AF00BFBD4680BCF8
:10151C00704780B400AF00BFBD4680BC704780B53B
:10152C0000AF00F07FF800BF80BD000080B500AFB9
:10153C00024800F0E7FF00BF80BD00BFD4000020D0
:10154C0080B400AF00BFBD4680BC70470C480D494D
:10155C000D4A002302E0D458C4500433C4188C4202
:10156C00F9D30A4A0A4C002301E013600432A24268
:10157C00FBD3FFF7E5FF01F00DFBFEF7A9FF70476A
:10158C000000002074000020382C0008740000209B
:10159C0020010020FEE7000080B500AF084B1B685F
:1015AC00074A43F010031360032000F023F90F20C7
:1015BC0000F008F8FFF73CFF0023184680BD00BF81
:1015CC000020024080B582B000AF7860124B1A68E0
:1015DC00124B1B7819464FF47A73B3FBF1F3B2FB41
:1015EC00F3F3184600F03BF90346002B01D001231E
:1015FC000EE07B680F2B0AD8002279684FF0FF3081
:10160C0000F003F9064A7B681360002300E0012315
:10161C0018460837BD4680BD6800002070000020C9
:10162C006C00002080B400AF054B1B781A46054BAC
:10163C001B681344034A136000BFBD4680BC70474F
:10164C00700000201C01002080B400AF024B1B680E
:10165C001846BD4680BC70471C01002080B485B084
:10166C0000AF78607B6803F00703FB600C4BDB6812
:10167C00BB60BA684FF6FF031340BB60FB681A02ED
:10168C00BB68134343F0BF6343F40033BB60044AAD
:10169C00BB68D36000BF1437BD4680BC704700BF29
:1016AC0000ED00E080B400AF044BDB681B0A03F0D4
:1016BC0007031846BD4680BC704700BF00ED00E034
:1016CC0080B483B000AF0346FB7197F90730002B51
:1016DC000BDBFB7903F01F02064997F907305B0916
:1016EC00012000FA02F241F8232000BF0C37BD465E
:1016FC0080BC704700E100E080B483B000AF0346CB
:10170C003960FB7197F90730002B0ADB3B68DAB2C2
:10171C000C4997F907301201D2B20B4483F800231D
:10172C000AE03B68DAB20849FB7903F00F03043B8B
:10173C001201D2B20B441A7600BF0C37BD4680BCE6
:10174C00704700BF00E100E000ED00E080B489B01C
:10175C0000AFF860B9607A60FB6803F00703FB61C7
:10176C00FB69C3F10703042B28BF0423BB61FB698E
:10177C000433062B02D9FB69033B00E000237B6199
:10178C004FF0FF32BB6902FA03F3DA43BB681A402D
:10179C007B699A404FF0FF317B6901FA03F3D9431F
:1017AC007B680B40134318462437BD4680BC7047FA
:1017BC0080B582B000AF78607B68013BB3F1807F6D
:1017CC0001D301230FE00A4A7B68013B53600F21D0
:1017DC004FF0FF30FFF790FF054B00229A60044B4F
:1017EC0007221A60002318460837BD4680BD00BF8B
:1017FC0010E000E080B582B000AF78607868FFF749
:10180C002DFF00BF0837BD4680BD80B586B000AF48
:10181C000346B9607A60FB7300237B61FFF742FFDC
:10182C0078617A68B9687869FFF790FF024697F992
:10183C000F3011461846FFF75FFF00BF1837BD4643
:10184C0080BD80B582B000AF0346FB7197F90730BD
:10185C001846FFF735FF00BF0837BD4680BD80B581
:10186C0082B000AF78607868FFF7A2FF0346184695
:10187C000837BD4680BD000080B48BB000AF7860E7
:10188C00396000237B6200233B6248E101227B6AC2
:10189C0002FA03F3FB613B681B68FA691340BB61F6
:1018AC00BA69FB699A4240F037813B685B68A34A8E
:1018BC0093425ED0A14A934275D8A14A934258D024
:1018CC009F4A93426FD89F4A934252D09D4A93426B
:1018DC0069D89D4A93424CD09B4A934263D89B4A09
:1018EC00934246D0994A93425DD8122B2AD8122B98
:1018FC0059D801A252F823F07F1900085919000891
:10190C006B190008AD190008B3190008B3190008C9
:10191C00B3190008B3190008B3190008B31900086B
:10192C00B3190008B3190008B3190008B31900085B
:10193C00B3190008B3190008B3190008611900089D
:10194C0075190008824A934213D02CE03B68DB687F
:10195C003B6229E03B68DB6804333B6224E03B6874
:10196C00DB6808333B621FE03B68DB680C333B628F
:10197C001AE03B689B68002B02D104233B6213E006
:10198C003B689B68012B05D108233B627B68FA6995
:10199C001A6109E008233B627B68FA695A6103E02B
:1019AC0000233B6200E000BFBB69FF2B01D87B68C2
:1019BC0001E07B6804337B61BB69FF2B02D87B6A37
:1019CC009B0002E07B6A083B9B003B617B691A68C9
:1019DC000F213B6901FA03F3DB431A40396A3B6977
:1019EC0001FA03F31A437B691A603B685B6803F0E6
:1019FC008053002B00F09080564B9B69554A43F066
:101A0C0001039361534B9B6903F00103BB60BB68FB
:101A1C00514A7B6A9B08023352F82330FB607B6A85
:101A2C0003F003039B000F2202FA03F3DB43FA6873
:101A3C001340FB607B68494A93420DD07B68484A4F
:101A4C00934207D07B68474A934201D1022304E0BA
:101A5C00032302E0012300E000237A6A02F0030270
:101A6C0092009340FA681343FB603B497B6A9B08E6
:101A7C000233FA6841F823203B685B6803F4803337
:101A8C00002B06D0384B1A683749BB6913430B60DF
:101A9C0006E0354B1A68BB69DB43334913400B60D6
:101AAC003B685B6803F40033002B06D02E4B5A685E
:101ABC002D49BB6913434B6006E02B4B5A68BB693D
:101ACC00DB43294913404B603B685B6803F480138C
:101ADC00002B06D0244B9A682349BB6913438B60B7
:101AEC0006E0214B9A68BB69DB431F4913408B60AE
:101AFC003B685B6803F40013002B06D01A4BDA68C2
:101B0C001949BB691343CB6006E0174BDA68BB6914
:101B1C00DB4315491340CB607B6A01337B623B6826
:101B2C001A687B6A22FA03F3002B7FF4AFAE00BF76
:101B3C0000BF2C37BD4680BC704700BF0000321080
:101B4C0000003110000022100000211000001210C3
:101B5C00000011100010024000000140000801407C
:101B6C00000C0140001001400004014080B485B01D
:101B7C0000AF78600B467B807B689A687B8813404B
:101B8C00002B02D00123FB7301E00023FB73FB7BD2
:101B9C0018461437BD4680BC704780B483B000AF84
:101BAC0078600B467B8013467B707B78002B03D0D0
:101BBC007A887B681A6103E07B881A047B681A6157
:101BCC0000BF0C37BD4680BC704780B485B000AFF9
:101BDC0078600B467B807B68DB68FB607A88FB68EF
:101BEC0013401A04FB68D9437B880B401A437B686B
:101BFC001A6100BF1437BD4680BC704780B586B0F3
:101C0C0000AF78607B68002B01D101236CE27B680C
:101C1C001B6803F00103002B00F08780924B5B687C
:101C2C0003F00C03042B0CD08F4B5B6803F00C03FC
:101C3C00082B12D18C4B5B6803F48033B3F5803FD7
:101C4C000BD1894B1B6803F40033002B6CD07B68E1
:101C5C005B68002B68D1012346E27B685B68B3F5B7
:101C6C00803F06D1804B1B687F4A43F4803313605E
:101C7C002EE07B685B68002B0CD17B4B1B687A4A8F
:101C8C0023F480331360784B1B68774A23F480234A
:101C9C0013601DE07B685B68B3F5A02F0CD1724B11
:101CAC001B68714A43F4802313606F4B1B686E4AA8
:101CBC0043F4803313600BE06B4B1B686A4A23F4CC
:101CCC0080331360684B1B68674A23F480231360CE
:101CDC007B685B68002B13D0FFF7B6FC386108E01B
:101CEC00FFF7B2FC02463B69D31A642B01D90323DC
:101CFC00FAE15D4B1B6803F40033002BF0D014E0C9
:101D0C00FFF7A2FC386108E0FFF79EFC02463B6936
:101D1C00D31A642B01D90323E6E1534B1B6803F45C
:101D2C000033002BF0D100E000BF7B681B6803F090
:101D3C000203002B63D04C4B5B6803F00C03002BAD
:101D4C000BD0494B5B6803F00C03082B1CD1464BA2
:101D5C005B6803F48033002B16D1434B1B6803F0F4
:101D6C000203002B05D07B681B69012B01D00123DA
:101D7C00BAE13D4B1B6823F0F8027B685B69DB0022
:101D8C00394913430B603AE07B681B69002B20D068
:101D9C00364B01221A60FFF757FC386108E0FFF759
:101DAC0053FC02463B69D31A022B01D903239BE156
:101DBC002D4B1B6803F00203002BF0D02A4B1B6841
:101DCC0023F0F8027B685B69DB00274913430B6047
:101DDC0015E0264B00221A60FFF736FC386108E04C
:101DEC00FFF732FC02463B69D31A022B01D90323BD
:101DFC007AE11D4B1B6803F00203002BF0D17B68CA
:101E0C001B6803F00803002B3AD07B689B69002BFE
:101E1C0019D0174B01221A60FFF716FC386108E045
:101E2C00FFF712FC02463B69D31A022B01D903239C
:101E3C005AE10D4B5B6A03F00203002BF0D001203A
:101E4C0000F0A6FA1CE00A4B00221A60FFF7FCFB1C
:101E5C0038610FE0FFF7F8FB02463B69D31A022BFF
:101E6C0008D9032340E100BF0010024000004242A9
:101E7C00800442429E4B5B6A03F00203002BE9D1C3
:101E8C007B681B6803F00403002B00F0A680002382
:101E9C00FB75974BDB6903F08053002B0DD1944BF2
:101EAC00DB69934A43F08053D361914BDB6903F0B8
:101EBC008053BB60BB680123FB758E4B1B6803F41E
:101ECC008073002B18D18B4B1B688A4A43F48073A8
:101EDC001360FFF7B9FB386108E0FFF7B5FB02466A
:101EEC003B69D31A642B01D90323FDE0814B1B689A
:101EFC0003F48073002BF0D07B68DB68012B06D1D8
:101F0C007B4B1B6A7A4A43F0010313622DE07B681A
:101F1C00DB68002B0CD1764B1B6A754A23F001034E
:101F2C001362734B1B6A724A23F0040313621CE0A6
:101F3C007B68DB68052B0CD16D4B1B6A6C4A43F03C
:101F4C00040313626A4B1B6A694A43F00103136270
:101F5C000BE0674B1B6A664A23F001031362644B68
:101F6C001B6A634A23F0040313627B68DB68002B53
:101F7C0015D0FFF769FB38610AE0FFF765FB0246F5
:101F8C003B69D31A41F28832934201D90323ABE067
:101F9C00574B1B6A03F00203002BEED014E0FFF743
:101FAC0053FB38610AE0FFF74FFB02463B69D31A3B
:101FBC0041F28832934201D9032395E04C4B1B6AC2
:101FCC0003F00203002BEED1FB7D012B05D1484B16
:101FDC00DB69474A23F08053D3617B68DB69002BB4
:101FEC0000F08180424B5B6803F00C03082B61D03E
:101FFC007B68DB69022B46D13F4B00221A60FFF74E
:10200C0023FB386108E0FFF71FFB02463B69D31A3C
:10201C00022B01D9032367E0354B1B6803F00073D7
:10202C00002BF0D17B681B6AB3F5803F08D1304B95
:10203C005B6823F400327B689B682D4913434B602B
:10204C002B4B5B6823F474127B68196A7B685B6AA0
:10205C000B43274913434B60274B01221A60FFF7B0
:10206C00F3FA386108E0FFF7EFFA02463B69D31A3E
:10207C00022B01D9032337E01D4B1B6803F00073BF
:10208C00002BF0D02FE01C4B00221A60FFF7DCFA7B
:10209C00386108E0FFF7D8FA02463B69D31A022BE5
:1020AC0001D9032320E0124B1B6803F00073002BB3
:1020BC00F0D118E07B68DB69012B01D1012313E01F
:1020CC000B4B5B68FB60FB6803F480327B681B6A1C
:1020DC009A4206D1FB6803F470127B685B6A9A42E1
:1020EC0001D0012300E0002318461837BD4680BDFF
:1020FC0000100240007000406000424280B584B085
:10210C0000AF786039607B68002B01D10123D0E0EF
:10211C006A4B1B6803F007033A689A4210D9674B65
:10212C001B6823F0070265493B6813430B60634B44
:10213C001B6803F007033A689A4201D00123B8E008
:10214C007B681B6803F00203002B20D07B681B68A4
:10215C0003F00403002B05D0594B5B68584A43F439
:10216C00E06353607B681B6803F00803002B05D009
:10217C00534B5B68524A43F460535360504B5B685B
:10218C0023F0F0027B689B684D4913434B607B68DE
:10219C001B6803F00103002B40D07B685B68012BAC
:1021AC0007D1474B1B6803F40033002B15D10123D7
:1021BC007FE07B685B68022B07D1414B1B6803F007
:1021CC000073002B09D1012373E03D4B1B6803F016
:1021DC000203002B01D101236BE0394B5B6823F028
:1021EC0003027B685B68364913434B60FFF72CFA9C
:1021FC00F8600AE0FFF728FA0246FB68D31A41F2AE
:10220C008832934201D9032353E02D4B5B6803F0D2
:10221C000C027B685B689B009A42EBD1274B1B68D6
:10222C0003F007033A689A4210D2244B1B6823F040
:10223C00070222493B6813430B60204B1B6803F0D9
:10224C0007033A689A4201D0012332E07B681B688D
:10225C0003F00403002B08D0194B5B6823F4E062F5
:10226C007B68DB68164913434B607B681B6803F083
:10227C000803002B09D0124B5B6823F460527B6877
:10228C001B69DB000E4913434B6000F021F802463A
:10229C000B4B5B681B0903F00F030A49CB5C22FA5A
:1022AC0003F3094A1360094B1B681846FFF78AF9B8
:1022BC00002318461037BD4680BD00BF00200240E9
:1022CC0000100240202C0008680000206C00002048
:1022DC0090B48AB000AF2A4B3C1D0FCB84E80F00A2
:1022EC0040F201233B800023FB610023BB610023F0
:1022FC007B6200237B6100233B62224B5B68FB61AA
:10230C00FB6903F00C03042B02D0082B03D02DE047
:10231C001D4B3B622DE0FB699B0C03F00F0307F197
:10232C002802134413F8243C7B61FB6903F48033CB
:10233C00002B13D0134B5B685B0C03F0010307F10C
:10234C002802134413F8283CBB617B690E4A02FB3C
:10235C0003F2BB69B2FBF3F37B6204E07B690B4ACB
:10236C0002FB03F37B627B6A3B6202E0064B3B623F
:10237C0000BF3B6A18462837BD4690BC704700BF6B
:10238C00102C00080010024000127A0000093D00D9
:10239C0080B485B000AF78600A4B1B680A4AA2FB78
:1023AC0003235B0A7A6802FB03F3FB6000BFFB6844
:1023BC005A1EFA60002BF9D100BF00BF1437BD467E
:1023CC0080BC704768000020D34D621080B582B08D
:1023DC0000AF78607B68002B01D1012341E07B6862
:1023EC0093F83D30DBB2002B06D17B68002283F8DA
:1023FC003C207868FFF74EF87B68022283F83D207A
:10240C007B681A687B6804331946104600F06AFA38
:10241C007B68012283F846207B68012283F83E20EA
:10242C007B68012283F83F207B68012283F84020DF
:10243C007B68012283F841207B68012283F84220CB
:10244C007B68012283F843207B68012283F84420B7
:10245C007B68012283F845207B68012283F83D20AC
:10246C00002318460837BD4680BD000080B485B0F7
:10247C0000AF78607B6893F83D30DBB2012B01D064
:10248C00012335E07B68022283F83D207B681B68C2
:10249C00DA687B681B6842F00102DA607B681B68B3
:1024AC00164A934209D07B681B68B3F1804F04D065
:1024BC007B681B68124A934211D17B681B689B682E
:1024CC0003F00703FB60FB68062B10D07B681B68CE
:1024DC001A687B681B6842F001021A6007E07B688F
:1024EC001B681A687B681B6842F001021A600023A3
:1024FC0018461437BD4680BC704700BF002C014005
:10250C000004004080B582B000AF78607B681B6827
:10251C001B6903F00203022B22D17B681B68DB686A
:10252C0003F00203022B1BD17B681B686FF00202C5
:10253C001A617B6801221A777B681B689B6903F020
:10254C000303002B03D0786800F0B1F905E078683C
:10255C0000F0A4F9786800F0B3F97B6800221A77D0
:10256C007B681B681B6903F00403042B22D17B6876
:10257C001B68DB6803F00403042B1BD17B681B680E
:10258C006FF004021A617B6802221A777B681B6861
:10259C009B6903F44073002B03D0786800F087F933
:1025AC0005E0786800F07AF9786800F089F97B68C2
:1025BC0000221A777B681B681B6903F00803082B41
:1025CC0022D17B681B68DB6803F00803082B1BD146
:1025DC007B681B686FF008021A617B6804221A770B
:1025EC007B681B68DB6903F00303002B03D078685E
:1025FC0000F05DF905E0786800F050F9786800F0BB
:10260C005FF97B6800221A777B681B681B6903F0F3
:10261C001003102B22D17B681B68DB6803F01003BE
:10262C00102B1BD17B681B686FF010021A617B6842
:10263C0008221A777B681B68DB6903F44073002B54
:10264C0003D0786800F033F905E0786800F026F9DB
:10265C00786800F035F97B6800221A777B681B6874
:10266C001B6903F00103012B0ED17B681B68DB682F
:10267C0003F00103012B07D17B681B686FF001028B
:10268C001A617868FEF73CF87B681B681B6903F0DD
:10269C008003802B0ED17B681B68DB6803F0800302
:1026AC00802B07D17B681B686FF080021A617868F9
:1026BC0000F067FA7B681B681B6903F04003402B32
:1026CC000ED17B681B68DB6803F04003402B07D1FD
:1026DC007B681B686FF040021A61786800F0F9F8AB
:1026EC007B681B681B6903F02003202B0ED17B68D1
:1026FC001B68DB6803F02003202B07D17B681B6869
:10270C006FF020021A61786800F032FA00BF0837C7
:10271C00BD4680BD80B584B000AF786039607B6801
:10272C0093F83C30012B01D10223B3E07B680122EA
:10273C0083F83C207B68022283F83D207B681B6871
:10274C009B68FB60FB6823F07703FB60FB6823F45A
:10275C007F43FB607B681B68FA689A603B681B6868
:10276C00B3F5005F3ED0B3F5005F00F28780B3F5A0
:10277C00805F00F08580B3F5805F7FD8702B1AD016
:10278C00702B7BD8602B50D0602B77D8502B3CD043
:10279C00502B73D8402B58D0402B6FD8302B64D093
:1027AC00302B6BD8202B60D0202B67D8002B5CD023
:1027BC00102B5AD062E07B6818683B6899683B68BC
:1027CC005A683B68DB6800F05CF97B681B689B68A7
:1027DC00FB60FB6843F07703FB607B681B68FA685F
:1027EC009A604EE07B6818683B6899683B685A6849
:1027FC003B68DB6800F045F97B681B689A687B686E
:10280C001B6842F480429A603BE07B6818683B6826
:10281C0059683B68DB681A4600F0BCF87B681B689B
:10282C005021184600F013F92BE07B6818683B68C0
:10283C0059683B68DB681A4600F0DAF87B681B685D
:10284C006021184600F003F91BE07B6818683B68B0
:10285C0059683B68DB681A4600F09CF87B681B687B
:10286C004021184600F0F3F80BE07B681A683B68CF
:10287C001B681946104600F0EAF802E000BF00E0C1
:10288C0000BF7B68012283F83D207B68002283F81F
:10289C003C20002318461037BD4680BD80B483B061
:1028AC0000AF786000BF0C37BD4680BC704780B469
:1028BC0083B000AF786000BF0C37BD4680BC70475A
:1028CC0080B483B000AF786000BF0C37BD4680BCCD
:1028DC00704780B483B000AF786000BF0C37BD4642
:1028EC0080BC704780B485B000AF786039607B687D
:1028FC001B68FB607B68254A934207D07B68B3F169
:10290C00804F03D07B68224A934208D1FB6823F0A6
:10291C007003FB603B685B68FA681343FB607B6881
:10292C001A4A934207D07B68B3F1804F03D07B687F
:10293C00174A934208D1FB6823F44073FB603B6851
:10294C00DB68FA681343FB60FB6823F080023B688A
:10295C005B691343FB607B68FA681A603B689A6892
:10296C007B68DA623B681A687B689A627B68074A04
:10297C00934203D13B681A697B681A637B68012216
:10298C005A6100BF1437BD4680BC7047002C014013
:10299C000004004080B487B000AFF860B9607A6082
:1029AC00FB681B6A7B61FB681B6A23F00102FB68F6
:1029BC001A62FB689B693B613B6923F0F0033B6146
:1029CC007B681B013A6913433B617B6923F00A0363
:1029DC007B617A69BB6813437B61FB683A699A61D6
:1029EC00FB687A691A6200BF1C37BD4680BC704711
:1029FC0080B487B000AFF860B9607A60FB681B6A7E
:102A0C0023F01002FB681A62FB689B697B61FB6810
:102A1C001B6A3B617B6923F470437B617B681B03FE
:102A2C007A6913437B613B6923F0A0033B61BB686C
:102A3C001B013A6913433B61FB687A699A61FB6835
:102A4C003A691A6200BF1C37BD4680BC704780B41F
:102A5C0085B000AF786039607B689B68FB60FB6871
:102A6C0023F07003FB603A68FB68134343F00703E1
:102A7C00FB607B68FA689A6000BF1437BD4680BC67
:102A8C00704780B487B000AFF860B9607A603B6083
:102A9C00FB689B687B617B6923F47F437B613B68AC
:102AAC001A027B681A43BB6813437A6913437B6130
:102ABC00FB687A699A6000BF1C37BD4680BC7047C2
:102ACC0080B485B000AF786039607B6893F83C3097
:102ADC00012B01D1022341E07B68012283F83C20C9
:102AEC007B68022283F83D207B681B685B68FB6077
:102AFC007B681B689B68BB60FB6823F07003FB6002
:102B0C003B681B68FA681343FB607B681B68FA68B8
:102B1C005A607B681B68144A934209D07B681B6817
:102B2C00B3F1804F04D07B681B68104A93420CD1E0
:102B3C00BB6823F08003BB603B685B68BA681343D7
:102B4C00BB607B681B68BA689A607B68012283F85B
:102B5C003D207B68002283F83C2000231846143764
:102B6C00BD4680BC704700BF002C014000040040F3
:102B7C0080B483B000AF786000BF0C37BD4680BC1A
:102B8C00704780B483B000AF786000BF0C37BD468F
:102B9C0080BC704770B500260C4D0D4C641BA41006
:102BAC00A64209D100F022F800260A4D0A4C641BFB
:102BBC00A410A64205D170BD55F8043B98470136C8
:102BCC00EEE755F8043B98470136F2E7302C000845
:102BDC00302C0008302C0008342C0008034602442A
:102BEC00934200D1704703F8011BF9E7F8B500BF19
:102BFC00F8BC08BC9E467047F8B500BFF8BC08BCD2
:042C0C009E46704729
:102C100002030405060708090A0B0C0D0E0F10101D
:102C2000000000000000000001020304060708097C
:042C30003101000866
:042C34000D01000886
:102C38000100000001000000010000000100000088
:102C48000100000001000000010000000100000078
:102C58000100000001000000010000000100000068
:102C6800640000006400000064000000040000002C
:102C7800020000000600000004000000040000003C
:102C8800020000000200000006000000060000002C
:102C980001000000525200000024F400100000005F
:042CA8000100000027
:040000050800155981
:00000001FF
